{
  "contractName": "Coinflip1",
  "abi": [
    {
      "inputs": [],
      "payable": false,
      "stateMutability": "nonpayable",
      "type": "constructor"
    },
    {
      "anonymous": false,
      "inputs": [
        {
          "indexed": false,
          "internalType": "uint256",
          "name": "value",
          "type": "uint256"
        },
        {
          "indexed": false,
          "internalType": "string",
          "name": "outcome",
          "type": "string"
        }
      ],
      "name": "result",
      "type": "event"
    },
    {
      "constant": true,
      "inputs": [],
      "name": "balance",
      "outputs": [
        {
          "internalType": "uint256",
          "name": "",
          "type": "uint256"
        }
      ],
      "payable": false,
      "stateMutability": "view",
      "type": "function"
    },
    {
      "constant": true,
      "inputs": [],
      "name": "betBalance",
      "outputs": [
        {
          "internalType": "uint256",
          "name": "",
          "type": "uint256"
        }
      ],
      "payable": false,
      "stateMutability": "view",
      "type": "function"
    },
    {
      "constant": true,
      "inputs": [],
      "name": "outcome",
      "outputs": [
        {
          "internalType": "uint256",
          "name": "",
          "type": "uint256"
        }
      ],
      "payable": false,
      "stateMutability": "view",
      "type": "function"
    },
    {
      "constant": true,
      "inputs": [],
      "name": "owner",
      "outputs": [
        {
          "internalType": "address",
          "name": "",
          "type": "address"
        }
      ],
      "payable": false,
      "stateMutability": "view",
      "type": "function"
    },
    {
      "constant": false,
      "inputs": [
        {
          "internalType": "uint256",
          "name": "number",
          "type": "uint256"
        }
      ],
      "name": "flipCoin",
      "outputs": [],
      "payable": true,
      "stateMutability": "payable",
      "type": "function"
    },
    {
      "constant": false,
      "inputs": [],
      "name": "addBalance",
      "outputs": [
        {
          "internalType": "uint256",
          "name": "",
          "type": "uint256"
        }
      ],
      "payable": true,
      "stateMutability": "payable",
      "type": "function"
    }
  ],
  "bytecode": "0x6080604052670de0b6b3a7640000600155600060025534801561002157600080fd5b50336000806101000a81548173ffffffffffffffffffffffffffffffffffffffff021916908373ffffffffffffffffffffffffffffffffffffffff16021790555060006003819055506105a3806100796000396000f3fe6080604052600436106100555760003560e01c806327793f871461005a5780635f5be1f4146100855780636ca95e44146100b35780638da5cb5b146100de578063b163cc3814610135578063b69ef8a814610153575b600080fd5b34801561006657600080fd5b5061006f61017e565b6040518082815260200191505060405180910390f35b6100b16004803603602081101561009b57600080fd5b8101908080359060200190929190505050610184565b005b3480156100bf57600080fd5b506100c861048e565b6040518082815260200191505060405180910390f35b3480156100ea57600080fd5b506100f3610494565b604051808273ffffffffffffffffffffffffffffffffffffffff1673ffffffffffffffffffffffffffffffffffffffff16815260200191505060405180910390f35b61013d6104b9565b6040518082815260200191505060405180910390f35b34801561015f57600080fd5b50610168610551565b6040518082815260200191505060405180910390f35b60025481565b600154600154341161019557600080fd5b60008214806101a45750600182145b610216576040517f08c379a00000000000000000000000000000000000000000000000000000000081526004018080602001828103825260198152602001807f506c6163652062792073656c656374696e672030206f7220310000000000000081525060200191505060405180910390fd5b346003541161022457600080fd5b34600460003373ffffffffffffffffffffffffffffffffffffffff1673ffffffffffffffffffffffffffffffffffffffff16815260200190815260200160002081905550600460003373ffffffffffffffffffffffffffffffffffffffff1673ffffffffffffffffffffffffffffffffffffffff168152602001908152602001600020546003600082825401925050819055506102bf610557565b8214156103da5760006002600460003373ffffffffffffffffffffffffffffffffffffffff1673ffffffffffffffffffffffffffffffffffffffff168152602001908152602001600020540290503373ffffffffffffffffffffffffffffffffffffffff166108fc829081150290604051600060405180830381858888f19350505050158015610353573d6000803e3d6000fd5b50806003600082825403925050819055507f698755ed6f18de45bcc3be90cccb3e4b0ebd9069e22b40aa553d1a915fffbdd5816040518082815260200180602001828103825260098152602001807f596f7520776f6e212100000000000000000000000000000000000000000000008152506020019250505060405180910390a15061048a565b7f698755ed6f18de45bcc3be90cccb3e4b0ebd9069e22b40aa553d1a915fffbdd5600460003373ffffffffffffffffffffffffffffffffffffffff1673ffffffffffffffffffffffffffffffffffffffff168152602001908152602001600020546040518082815260200180602001828103825260118152602001807f596f75206c6f73742c20536f72727921210000000000000000000000000000008152506020019250505060405180910390a15b5050565b60015481565b6000809054906101000a900473ffffffffffffffffffffffffffffffffffffffff1681565b600060015460015434116104cc57600080fd5b6000809054906101000a900473ffffffffffffffffffffffffffffffffffffffff1673ffffffffffffffffffffffffffffffffffffffff163373ffffffffffffffffffffffffffffffffffffffff161461052557600080fd5b6000600354905034600360008282540192505081905550600354811061054757fe5b6003549250505090565b60035481565b60006002428161056357fe5b06600281905590509056fea265627a7a72315820a4b2b25a0ec99ca287c1fb6a7b37ff4d57c1da5ea2a429569a8bf488b00a307a64736f6c634300050c0032",
  "source": "import \"./Ownable.sol\";\r\npragma solidity 0.5.12;\r\n\r\ncontract Coinflip1 is Ownable {\r\n  uint public betBalance = 1 ether;\r\n\r\n  uint public outcome = 0;\r\n\r\n  uint public balance;\r\n\r\n  mapping(address => uint) deposit;\r\n\r\n  event result(uint value, string outcome);\r\n\r\n  modifier costs(uint cost){\r\n    require(msg.value > betBalance);\r\n    _;\r\n  }\r\n\r\n  constructor() public {\r\n    balance = 0;\r\n  }\r\n\r\n  function flip() private returns(uint){\r\n    return outcome = now % 2;\r\n  }\r\n\r\n  function flipCoin(uint number) public payable costs(betBalance) {\r\n    require(number == 0 || number ==1, \"Place by selecting 0 or 1\");\r\n    require(balance > msg.value);\r\n\r\n    deposit[msg.sender] = msg.value;\r\n\r\n    balance += deposit[msg.sender];\r\n\r\n    if(number== flip()) {\r\n      uint win = deposit[msg.sender] * 2;\r\n      msg.sender.transfer(win);\r\n      balance -= win;\r\n      emit result(win, \"You won!!\");\r\n\r\n    }\r\n    else {\r\n      emit result(deposit[msg.sender], \"You lost, Sorry!!\");\r\n    }\r\n\r\n  }\r\n\r\n  function addBalance() public payable costs(betBalance) onlyOwner returns(uint){\r\n    uint old_balance = balance;\r\n    balance += msg.value;\r\n    assert(old_balance< balance);\r\n    return balance;\r\n  }\r\n\r\n\r\n}\r\n",
  "sourcePath": "C:/Users/ankur/Documents/Ankur Aras/Ivan on Tech/Ethereum 201/Coinflip1/contracts/Coinflip1.sol",
  "compiler": {
    "name": "solc",
    "version": "0.5.12+commit.7709ece9.Emscripten.clang"
  },
  "schemaVersion": "3.0.16",
  "updatedAt": "2020-12-27T04:28:03.222Z",
  "devdoc": {
    "methods": {}
  },
  "userdoc": {
    "methods": {}
  }
}