{
  "contractName": "Coinflip1",
  "abi": [
    {
      "inputs": [],
      "payable": false,
      "stateMutability": "nonpayable",
      "type": "constructor"
    },
    {
      "anonymous": false,
      "inputs": [
        {
          "indexed": false,
          "internalType": "uint256",
          "name": "value",
          "type": "uint256"
        },
        {
          "indexed": false,
          "internalType": "string",
          "name": "outcome",
          "type": "string"
        }
      ],
      "name": "result",
      "type": "event"
    },
    {
      "constant": true,
      "inputs": [],
      "name": "balance",
      "outputs": [
        {
          "internalType": "uint256",
          "name": "",
          "type": "uint256"
        }
      ],
      "payable": false,
      "stateMutability": "view",
      "type": "function"
    },
    {
      "constant": true,
      "inputs": [],
      "name": "betBalance",
      "outputs": [
        {
          "internalType": "uint256",
          "name": "",
          "type": "uint256"
        }
      ],
      "payable": false,
      "stateMutability": "view",
      "type": "function"
    },
    {
      "constant": true,
      "inputs": [],
      "name": "outcome",
      "outputs": [
        {
          "internalType": "uint256",
          "name": "",
          "type": "uint256"
        }
      ],
      "payable": false,
      "stateMutability": "view",
      "type": "function"
    },
    {
      "constant": true,
      "inputs": [],
      "name": "owner",
      "outputs": [
        {
          "internalType": "address",
          "name": "",
          "type": "address"
        }
      ],
      "payable": false,
      "stateMutability": "view",
      "type": "function"
    },
    {
      "constant": false,
      "inputs": [
        {
          "internalType": "uint256",
          "name": "number",
          "type": "uint256"
        }
      ],
      "name": "flipCoin",
      "outputs": [],
      "payable": true,
      "stateMutability": "payable",
      "type": "function"
    },
    {
      "constant": false,
      "inputs": [],
      "name": "addBalance",
      "outputs": [
        {
          "internalType": "uint256",
          "name": "",
          "type": "uint256"
        }
      ],
      "payable": true,
      "stateMutability": "payable",
      "type": "function"
    }
  ],
  "bytecode": "0x6080604052670de0b6b3a7640000600155600060025534801561002157600080fd5b50336000806101000a81548173ffffffffffffffffffffffffffffffffffffffff021916908373ffffffffffffffffffffffffffffffffffffffff1602179055506000600381905550610580806100796000396000f3fe6080604052600436106100555760003560e01c806327793f871461005a5780635f5be1f4146100855780636ca95e44146100b35780638da5cb5b146100de578063b163cc3814610135578063b69ef8a814610153575b600080fd5b34801561006657600080fd5b5061006f61017e565b6040518082815260200191505060405180910390f35b6100b16004803603602081101561009b57600080fd5b8101908080359060200190929190505050610184565b005b3480156100bf57600080fd5b506100c861047d565b6040518082815260200191505060405180910390f35b3480156100ea57600080fd5b506100f3610483565b604051808273ffffffffffffffffffffffffffffffffffffffff1673ffffffffffffffffffffffffffffffffffffffff16815260200191505060405180910390f35b61013d6104a8565b6040518082815260200191505060405180910390f35b34801561015f57600080fd5b5061016861052e565b6040518082815260200191505060405180910390f35b60025481565b60008114806101935750600181145b610205576040517f08c379a00000000000000000000000000000000000000000000000000000000081526004018080602001828103825260198152602001807f506c6163652062792073656c656374696e672030206f7220310000000000000081525060200191505060405180910390fd5b34600354101561021457600080fd5b34600460003373ffffffffffffffffffffffffffffffffffffffff1673ffffffffffffffffffffffffffffffffffffffff16815260200190815260200160002081905550600460003373ffffffffffffffffffffffffffffffffffffffff1673ffffffffffffffffffffffffffffffffffffffff168152602001908152602001600020546003600082825401925050819055506102af610534565b8114156103ca5760006002600460003373ffffffffffffffffffffffffffffffffffffffff1673ffffffffffffffffffffffffffffffffffffffff168152602001908152602001600020540290503373ffffffffffffffffffffffffffffffffffffffff166108fc829081150290604051600060405180830381858888f19350505050158015610343573d6000803e3d6000fd5b50806003600082825403925050819055507f698755ed6f18de45bcc3be90cccb3e4b0ebd9069e22b40aa553d1a915fffbdd5816040518082815260200180602001828103825260098152602001807f596f7520776f6e212100000000000000000000000000000000000000000000008152506020019250505060405180910390a15061047a565b7f698755ed6f18de45bcc3be90cccb3e4b0ebd9069e22b40aa553d1a915fffbdd5600460003373ffffffffffffffffffffffffffffffffffffffff1673ffffffffffffffffffffffffffffffffffffffff168152602001908152602001600020546040518082815260200180602001828103825260118152602001807f596f75206c6f73742c20536f72727921210000000000000000000000000000008152506020019250505060405180910390a15b50565b60015481565b6000809054906101000a900473ffffffffffffffffffffffffffffffffffffffff1681565b60008060009054906101000a900473ffffffffffffffffffffffffffffffffffffffff1673ffffffffffffffffffffffffffffffffffffffff163373ffffffffffffffffffffffffffffffffffffffff161461050357600080fd5b6000600354905034600360008282540192505081905550600354811061052557fe5b60035491505090565b60035481565b60006002428161054057fe5b06600281905590509056fea265627a7a723158206fb9600f7f993bc77313f7f293305627c9c25fae83e8f2390754474f65daa3e564736f6c634300050c0032",
  "source": "import \"./Ownable.sol\";\r\npragma solidity 0.5.12;\r\n\r\ncontract Coinflip1 is Ownable {\r\n  uint public betBalance = 1 ether;\r\n\r\n  uint public outcome = 0;\r\n\r\n  uint public balance;\r\n\r\n  mapping(address => uint) deposit;\r\n\r\n  event result(uint value, string outcome);\r\n\r\n\r\n\r\n  constructor() public {\r\n    balance = 0;\r\n  }\r\n\r\n  function flip() private returns(uint){\r\n    return outcome = now % 2;\r\n  }\r\n\r\n  function flipCoin(uint number) public payable {\r\n    require(number == 0 || number ==1, \"Place by selecting 0 or 1\");\r\n    require(balance >= msg.value);\r\n\r\n    deposit[msg.sender] = msg.value;\r\n\r\n    balance += deposit[msg.sender];\r\n\r\n    if(number== flip()) {\r\n      uint win = deposit[msg.sender] * 2;\r\n      msg.sender.transfer(win);\r\n      balance -= win;\r\n      emit result(win, \"You won!!\");\r\n\r\n    }\r\n    else {\r\n      emit result(deposit[msg.sender], \"You lost, Sorry!!\");\r\n    }\r\n\r\n  }\r\n\r\n  function addBalance() public payable onlyOwner returns(uint){\r\n    uint old_balance = balance;\r\n    balance += msg.value;\r\n    assert(old_balance< balance);\r\n    return balance;\r\n  }\r\n\r\n\r\n}\r\n",
  "sourcePath": "C:/Users/ankur/Documents/Ankur Aras/Ivan on Tech/Ethereum 201/Coinflip1/contracts/Coinflip1.sol",
  "compiler": {
    "name": "solc",
    "version": "0.5.12+commit.7709ece9.Emscripten.clang"
  },
  "schemaVersion": "3.0.16",
  "updatedAt": "2021-01-03T05:30:50.491Z",
  "devdoc": {
    "methods": {}
  },
  "userdoc": {
    "methods": {}
  }
}